:0D001500758E0C758F017F0A1204FC80FEB1
:05002200EFF452A022E2
:04002700EF42A022E2
:10056900AE077F801200277F401200277F201200EC
:10057900277F10120027EE30E0057F80120022EE5F
:1005890030E1057F40120022EE30E2057F201200A3
:0B05990022EE30E3057F10120022224A
:10000300ED120293900001E41202A5900002E402B3
:0200130002A544
:1003E400900002120233FF701512021A55A0707B9E
:1003F4009000011202A590000274010202A5EF64AC
:10040400017028900001041202609000011202336E
:10041400C39402405612021A55A070089000027448
:10042400020202A5900002E40202A5EFB4030F1237
:10043400021A55A0603590000274040202A5EF640C
:10044400047028900001041202609000011202332B
:10045400C39402401612021A55A06007900002E4E9
:0C0464000202A590000274031202A522FF
:0A05A4000116010117000214000007
:03002B0002002EA2
:10002E00C0E0C0F0C083C082C0D075D000C000C098
:10003E0001C002C003C004C005C006C007C2CF7B0A
:10004E00007A0079081203E47B007A00790B120320
:10005E00E47B007A00790E1203E47B007A007911BA
:10006E001203E4E518146056146067146078147077
:10007E000302012F1470030201982405600302018C
:10008E00FFAF16120569E50DB40206751801750D60
:10009E0003E510B40206751802751003E50AB402E2
:1000AE0009751804750A03751700E51364026003D9
:1000BE000201FF751805751303F5170201FFE5160A
:1000CE00C3940F50020516AF16120569751800027B
:1000DE0001FFE516D3940140021516AF16120569FD
:1000EE007518000201FFAF17120569751700E50DAF
:1000FE00B40206750D03751800E510B402067510EE
:10010E0003751800E50AB40206751804750A03E5AE
:10011E0013640260030201FF7518057513030201D3
:10012E00FFAF171205690515E51570020514E516E2
:10013E0075F006A4FFD3E5159FE51495F0401A75EA
:10014E001400751500E517940F400575170080090A
:10015E00E517C313F517431708E50DB40206750D21
:10016E0003751800E510B40206751003751800E546
:10017E000AB40206751803750A03E513640270715A
:10018E00751805751303F5178067AF171205690506
:10019E0015E51570020514E51675F006A4FFD3E5F6
:1001AE00159FE51495F0401A751400751500E517A6
:1001BE00940F40057517008009E51725E0F51743E4
:1001CE001701E50DB40206750D03751800E510B4A0
:1001DE000206751003751800E50AB40209751804B5
:1001EE00750A03751700E513B40206751803751327
:1001FE0003D007D006D005D004D003D002D001D052
:0C020E0000D0D0D082D083D0F0D0E032FD
:1004FC00E4FCFDFEFB7A40791978011202C7E47B1B
:10050C00707A17F9F8120352C3E49FF51AE49EF5BA
:10051C00197B007A0079087D011200037B007A00B8
:10052C00790B7D021200037B007A00790E7D041298
:10053C0000037B007A0079117D0812000375180303
:10054C00E4F517751601F5C8E51AFD7C00ECF5CB42
:0C055C00AF058FCAC2CFD2ADD2AFD2CA59
:010568002270
:0300000002047087
:0C047000787FE4F6D8FD75811A0204B70D
:10021A00BB010689828A83E0225002E722BBFE02E2
:09022A00E32289828A83E4932215
:10023300BB010CE58229F582E5833AF583E0225080
:1002430006E92582F8E622BBFE06E92582F8E222CA
:0D025300E58229F582E5833AF583E49322E4
:10026000BB010FF8E58229F582E5833AF583E028A2
:10027000F0225009C58229F8E58226F622BBFE0944
:10028000C58229F8E22582F222F8EA2583F583E97E
:030290009328228E
:10029300BB010689828A83F0225002F722BBFE014A
:0202A300F32244
:1002A500F8BB010DE58229F582E5833AF583E8F08F
:1002B500225006E92582C8F622BBFE05E92582C83B
:0202C500F22223
:1002C700E88FF0A4CC8BF0A42CFCE98EF0A42CFCD6
:1002D7008AF0EDA42CFCEA8EF0A4CDA8F08BF0A454
:1002E7002DCC3825F0FDE98FF0A42CCD35F0FCEBB3
:1002F7008EF0A4FEA9F0EB8FF0A4CFC5F02ECD3978
:0F030700FEE43CFCEAA42DCE35F0FDE43CFC22E4
:1003160075F008758200EF2FFFEE33FECD33CDCC9E
:1003260033CCC58233C5829BED9AEC99E582984021
:100336000CF582EE9BFEED9AFDEC99FC0FD5F0D6FE
:10034600E4CEFBE4CDFAE4CCF9A88222B800C1B928
:100356000059BA002DEC8BF084CFCECDFCE5F0CB66
:10036600F97818EF2FFFEE33FEED33FDEC33FCEB9F
:1003760033FB10D703994004EB99FB0FD8E5E4F95A
:10038600FA227818EF2FFFEE33FEED33FDEC33FC47
:10039600C933C910D7059BE99A4007EC9BFCE99A3B
:1003A600F90FD8E0E4C9FAE4CCFB2275F010EF2F80
:1003B600FFEE33FEED33FDCC33CCC833C810D70780
:1003C6009BEC9AE899400AED9BFDEC9AFCE899F8BB
:0E03D6000FD5F0DAE4CDFBE4CCFAE4C8F9224E
:10047C00020015E493A3F8E493A34003F68001F281
:10048C0008DFF48029E493A3F85407240CC8C33381
:10049C00C4540F4420C8834004F456800146F6DF50
:1004AC00E4800B01020408102040809005A4E47E37
:1004BC00019360BCA3FF543F30E509541FFEE49345
:1004CC00A360010ECF54C025E060A840B8E493A30C
:1004DC00FAE493A3F8E493A3C8C582C8CAC583CA37
:1004EC00F0A3C8C582C8CAC583CADFE9DEE780BEEF
:0105AE00004C
:00000001FF
